:1000000000000320D10100006D39000039390000E3
:100010003939000039390000393900003939000018
:100020003939000039390000393900006D390000D4
:100030006D39000039390000F955000045580000BD
:100040006D3900006D3900006D3900006D39000018
:100050006D3900006D3900006D3900006D39000008
:100060006D3900006D3900006D3900006D390000F8
:100070006D3900006D3900006D3900006D390000E8
:100080006D3900006D3900006D3900006D390000D8
:100090006D3900006D3900006D3900006D390000C8
:1000A0006D3900006D3900006D3900006D390000B8
:1000B0006D3900006D3900006D390000C51E00006B
:1000C0006D390000593F00006D390000DD07000068
:1000D0006D390000793300006D3900006D39000082
:1000E0006D3900006D3900006D3900006D39000078
:1000F0006D3900006D3900006D3900006D39000068
:100100002951000041510000595100007151000077
:100110006D3900002D2500006D3900006D3900009B
:100120006D3900006D3900006D3900006D39000037
:100130006D3900006D3900006D3900006D39000027
:10014000714600006D390000953800006D390000DF
:100150006D3900006D3900006D3900006D39000007
:100160006D3900006D3900006D3900006D390000F7
:100170006D3900006D3900006D3900006D390000E7
:100180006D3900006D3900006D3900006D390000D7
:100190006D3900006D3900005D1800006D390000F8
:1001A0006D3900006D3900006D3900006D390000B7
:1001B0006D3900006D3900006D3900006D390000A7
:1001C0006D3900006D3900006D3900006D39000097
:1001D0005D4B4CF2205210B5DA814DF62812DA81CF
:1001E00000BF00BF03F0C5FB584B4FF030621A63ED
:1001F000574A9A63574ADA634FF0E0234FF470028C
:10020000C3F8882D03F5E823534A1A60534B9A78B4
:10021000100748BF9A78524844BF42F008029A70CB
:10022000504BAA221A70504BDA1C121AC11E22F02F
:100230000302994288BF00224C4906F0ADF94C4BAD
:100240004C48DA1C121AC11E22F00302994288BFE0
:100250000022002106F0C8F9474948484FF4E872E7
:1002600006F09AF9464B474A802103F8011B934256
:10027000FBD14FF0E023414AC3F8082D424B8A22BC
:100280001A70A3F5805324225A70A0221A709A790A
:100290009107FCD59A79D206FCD43C4B9A7902F0AE
:1002A0000C02082AFAD101221A7148225A719A794D
:1002B0009406FCD535498B795806FCD5234B344A36
:1002C0005A6402229A6420220A708A7902F00C028F
:1002D0000C2AFAD12F4A5A602F4A136913F48073FB
:1002E00002BF53614FF4A85313614FF0E0234BF664
:1002F0007F325A6100229A6107221A61274AC3F8A5
:10030000202D62B600F065FE234B5B69DA0705D548
:10031000234800F00DFB234B234ADA61234B1B7863
:100320005B0609D51F4C204BE2699A4204D11C4858
:1003300000F0FEFA0023E36106F0D8F803F020FB9A
:1003400005F090FAFEE700BF002005400080044061
:10035000823F04000100002B0300008500D007400D
:100360003007FF1F00E00740980CFF1FA0B30000FC
:10037000A011FF1F980CFF1F000000000002FF1FCC
:1003800000E400E064E400E0005006400040064065
:1003900000001311C010050000D003400000202011
:1003A0000000000000E00340A5C3945A00F007409D
:1003B000FFFFFFFFFFFFFFFFFFFFFFFFFFFFFFFF4D
:1003C000FFFFFFFFFFFFFFFFFFFFFFFFFFFFFFFF3D
:1003D000FFFFFFFFFFFFFFFFFFFFFFFFFFFFFFFF2D
:1003E000FFFFFFFFFFFFFFFFFFFFFFFFFFFFFFFF1D
:1003F000FFFFFFFFFFFFFFFFFFFFFFFFFFFFFFFF0D
:10040000FFFFFFFFFFFFFFFFFFFFFFFFDEF9FFFF23
:1004100010B5054C237833B9044B13B10448AFF33E
:1004200000800123237010BD980CFF1F0000000006
:10043000A0B3000008B5034B1BB103490348AFF359
:10044000008008BD000000009C0CFF1FA0B300004E
:10045000174A536B43F480535363164A00231370B7
:1004600053709370D3701371134A40F2133191603B
:1004700020284FF45171D16038BF202002F500329E
:10048000C0F344311170C0F3471100F01F005170E8
:100490009072937013742C23D370084B402283F80E
:1004A00023204FF0E0230822C3F80421704700BF47
:1004B00000800440B40CFF1F00C0044000E400E0D2
:1004C000174A937800F0030103F0EC030B43410754
:1004D00048BF43F01003937000F00F03042B02BFDA
:1004E000937943F0400393710D4A5379C10603F0A9
:1004F000EF0348BF43F0100353719279084B02F0A9
:10050000EF02810648BF42F010029A71C20506D57B
:100510005A781978D2B241F0200119705A70704798
:1005200000C00640104B5B6BDB0410B518D50F4CB8
:10053000227902F0FF03A2B94FF0E0220821C2F8AD
:1005400084110B4A0B49D37040F203108860C860D5
:100550001179D27923706370A3680BB101221A70EC
:1005600010BD04F08FFFE3E700800440B40CFF1FD0
:1005700000C0064000C0044070B50A4D04462B7907
:1005800003F0FF06002BFAD10121204600F0DAFA31
:100590003146204600F09CFA034B53F83430EB60B0
:1005A00070BD00BFB40CFF1F78AB000010B509B1DF
:1005B00040F080000E4A1378834217D00D4C646BD4
:1005C000E40412D503F07F03082B02BF0A4B00247A
:1005D000DC60002900F07F010CBF44236023082960
:1005E00002BF054943F44073CB60107010BD00BFDB
:1005F0003008FF1F0080044000C00440704738B539
:100600000C4B5B6B13F480534FF0000410D03F2869
:10061000094D0AD8094B012153F83030AB6000F086
:1006200091FAAB6801201C7038BDAC602046FBE736
:100630001846F9E700800440B40CFF1F78AB0000B7
:100640000C4B0246586B10F4805012D00E2A03F562
:10065000103309D1084A40F2023151605A7B42F00E
:1006600001025A73012070475A7B02F0FE025A734E
:10067000002070470080044000C00440F8B51B4BC8
:100680005B6BDA04064617D5194DEB680BB10122F6
:100690001A70AC78174F0134282C28BF0024EB784F
:1006A000A3420AD02B19F6B21E7401232B71114BF1
:1006B000E4B2AC22AC70DA70F8BD03F092F94028D5
:1006C0000EDC3B791B06EAD5EB780133282B28BFDB
:1006D0000023EA18DBB2127CD2B2FA71EB70DEE7CB
:1006E000FF28DCDD04F0CEFED9E700BF0080044027
:1006F000B40CFF1F00C0064038B504464518AC4294
:1007000000D138BD14F8010BFFF7B8FFF7E710B5BB
:10071000034C237903B910BD04F0B4FEF9E700BF20
:10072000B40CFF1F054B9978DA78D3B29142C8B266
:100730002CBF273303F1FF33181A7047B40CFF1F87
:10074000044A11785278CBB29142D0B238BF4033CC
:10075000181A7047B40CFF1F10B50F4C207863783F
:100760009842C1B2DAB214D0531C402B28BF0023E8
:10077000E21892F83800DAB26270A268C0B23AB1F8
:100780008B4288BF4031CB1A1A2B01DC0023137037
:1007900010BD4FF0FF30FBE7B40CFF1F084A107884
:1007A00051788842CBB208D00133402B28BF0023B8
:1007B000134493F83800C0B270474FF0FF307047D1
:1007C000B40CFF1F044B5A78D2B21A709B680BB15D
:1007D00000221A70704700BFB40CFF1F30B5264BC3
:1007E0001A7992061ED5254AD979137850780133A3
:1007F000402BA8BF0023984218BFD018C9B21EBF13
:1008000080F83810D9B21170916859B1D07883420C
:10081000C2B236BFC2F140029B1A9B18272BC4BF3D
:1008200001230B701449CB781D06DCB20AD50B7975
:10083000180607D5114A9578D0788542C3B210D1F1
:100840006C23CB7061060BD50B4B1A79520607D57A
:100850000A4A00211171D26802B111702C22DA709B
:1008600030BD0133282B28BF0023D018DBB2007C19
:10087000C0B2C871D370E5E700C00640B40CFF1FDA
:10088000704700F14040A0F592237C2B12D9A0F5CF
:1008900094237C2B10D9A0F596237C2B0ED9A0F5A0
:1008A00098237C2B0CD9A0F59A207C28054888BF7A
:1008B0000020704704487047044870470448704758
:1008C000044870477C09FF1F7408FF1FEC08FF1FD6
:1008D0004C09FF1F3408FF1F024B103043F8201053
:1008E000704700BF0002FF1F08B50C4B03EBC003AD
:1008F0005A681046FFF7C5FF70B172B6136823F04F
:10090000877323F4803343F080731360C2F384024F
:10091000034B40F8223062B608BD00BF78AB000040
:1009200081080000014B1868704700BF00D00340E9
:10093000034B00225A615A60102218605A617047B6
:1009400000D00340002816DB03024FF48071B3F59A
:10095000004F0A4601F1FF3104D30129A3EB000245
:1009600007D10A461B0A013A43EA02230D4AD36023
:1009700070471346EBE76FF0FF0343434FF480717A
:10098000B3F5014F0A4601F1FF3104D3012900EB11
:10099000030204D10A461B0AC3F58073E3E713463A
:1009A000EEE700BF00D003401028034628BF102305
:1009B000044A012B38BF012392F8B40182F8B43104
:1009C000704700BF3408FF1F2DE9F047A0F1100663
:1009D000F6B2012E054688463BD93449404605F01B
:1009E000F3FC334B002847F6122912BF02270127D8
:1009F000994600244FF05E5A29FA04F005F0EEFA09
:100A0000514605F043FB0146404605F0F1FC10B9A4
:100A10000134072CF0D129FA04F005F0DFFA414641
:100A200005F0E8FB4FF07C5105F026FA05F00AFDD1
:100A30004FF6FF73984228BF1846EB1E012B0CD8C7
:100A40001C4B002244EAC7041A605A6098601C607C
:100A50001FE0DFF864900127CBE7172D0CD9A5F133
:100A60001D03012B17D90E2D17D9233D032D1AD99C
:100A7000012E0ED8114BE4E7114BEB40DB4313F092
:100A80000103F0D10F4A44EAC70413605360906039
:100A90001460BDE8F0870C4BD3E744F2841323FACB
:100AA00005F5EB07E4D5094BCBE700BF001BB740CA
:100AB000006CDC02009003400024F40000900C4025
:100AC0006006F0000080034000800B4000900B4067
:100AD0003F2810B509D80D4B53F8302092F88042CA
:100AE0003CB1012311B182F8803010BD82F8003191
:100AF000FBE703EBC00043681A6819B142F0030238
:100B00001A60F2E722F00202FAE700BF78AB0000B9
:100B10003F289FBF034B53F83030012283F88021D8
:100B2000704700BF78AB00003F289FBF044B53F8CD
:100B3000303093F80002C0B288BF0020704700BF79
:100B400078AB00003F2817D8144A02EBC0030129F4
:100B50005B6852F8300001D004290ED1012280F8E0
:100B600080224FF4A2721A601A6804290CBF42F066
:100B7000200222F020021A607047002280F88022B2
:100B800011B94FF48072F6E7022902D140F2031244
:100B9000F1E7032908BF4FF48172ECE778AB00005E
:100BA0003F2870B50E4632D8042A30D8184B1A4464
:100BB00003EBC00392F800425D68296811F4E0611C
:100BC0004FEA044401D1FFF7BDFF124B124AC3F8AC
:100BD0002C21124AC3F83021114AC3F83421114A9A
:100BE000C3F83821104AC3F83C212846FFF749FED4
:100BF00068B172B62B6823F470232B601C43C5F3D5
:100C0000840344F0807440F823602C6062B670BDA9
:100C100078AB00000002FF1FFD07FF1FC907FF1F81
:100C20009507FF1F6507FF1F3107FF1F38B5A0F1AC
:100C30004202894B012A93F8B431044612D80B2B97
:100C400095BFC3F10C030C3B01FA03F041FA03F02A
:100C5000422C03D1BDE8384003F062BBBDE8384008
:100C600003F078BB0125002905FA03F204DC00211A
:100C7000FFF72EFF012104E0914207D32946FFF739
:100C800027FF2046BDE83840FFF75CBFC21E012A9F
:100C900030D8724A906800FB011020FA03F3A21EBC
:100CA000242A00F2D280DFE812F09500790080005B
:100CB00072006000A000A40052005900D000D000D3
:100CC000D0009C00D000C400CA00D000D000640056
:100CD0006B0044004B00D000D000D000D000D0000A
:100CE00087008E00D000D000D000D000A800AF0058
:100CF000B600BD00A0F11D02012A01D8584AC9E77B
:100D00000E280AD9A0F12302032A0BD9A4F110025C
:100D1000012A94BF534A544A05E044F28412C24067
:100D2000D207F3D5514A926802FB011222FA03F36B
:100D3000B5E74D4A13614E4B40F244425A6013E00E
:100D4000494A93614A4B40F244429A600CE0464A59
:100D50001362474B40F24442DA6005E0424A936234
:100D6000434B40F244421A6138BD3F4A1363414B42
:100D7000F7E73D4A93633F4B40F244425A61F3E741
:100D8000394A13643B4B40F244429A61ECE7364ADD
:100D90009364384B40F24442DA61E5E72F4A13612D
:100DA000354B4FF451721A63DEE72C4A9361324B94
:100DB0004FF451725A63D7E7294A13612F4B4FF40E
:100DC00051729A64D0E7264A93612C4B4FF45172CA
:100DD000DA64C9E7254A1361264B40F244421A609F
:100DE000C2E7224A9361234BA6E7204A1362214BB4
:100DF000A9E71E4A93621F4BACE71C4A13631C4BC6
:100E00004FF451721A62AFE7184A9363184B4FF4CC
:100E100051725A62A8E7154A1364154B4FF4517288
:100E20009A62A1E7114A9364114B4FF45172DA624E
:100E30009AE70C4A1361114B40F24462CFE7094A2A
:100E400093610E4B40F2446278E77F29D4BF0021C2
:100E5000012120460CE700BF3408FF1F009003402B
:100E600000800B4000900C400080034000900B403D
:100E700000B0044000C004400090044000A00440C2
:100E80002DE9F04107460D4690460826012408EA60
:100E900004013846FFF71CFE01212846FFF718FE23
:100EA00000212846FFF714FE6400013EE4B2EED1B3
:100EB000BDE8F0812DE9F04107460C469046082533
:100EC000802608EA06013846FFF702FE0121204687
:100ED000FFF7FEFD00212046FFF7FAFD013D4FEA36
:100EE0005606EED1BDE8F08110B414461A4614B986
:100EF00010BCFFF7C5BF10BCFFF7DCBF2DE9F04108
:100F000080460D4608270026012428460121FFF7C8
:100F1000DFFD4046FFF708FE00B1264300212846CA
:100F2000FFF7D6FD6400013FE4B2EED13046BDE8E4
:100F3000F0812DE9F04180460C46082600258027E7
:100F400020460121FFF7C4FD4046FFF7EDFD00B14B
:100F50003D4300212046FFF7BBFD013E4FEA570706
:100F6000EED12846BDE8F0810AB9FFF7C7BFFFF709
:100F7000E0BF72B64FF0E0210A4A8B691268D1F8DF
:100F8000041D62B6490102D5322B88BF0132C3F578
:100F90003B4330207F33B3FBF0F34FF47A7000FB18
:100FA000023070472C0DFF1F38B50446FFF7E1FFF4
:100FB00005466CB1FFF7DDFF401BB0F57A7F02D22A
:100FC00004F060FAF6E7013C02D005F57A75F1E726
:100FD00038BD38B54FF0E0234FF00062C3F804216C
:100FE0004FF08052C3F804214FF00052C3F804219F
:100FF0004FF08042C3F804214FF00042C3F80421AF
:101000002649274A282300204BF6FF75092448600B
:101010008D60CB604B61CB614B62CB624B63CB632A
:101020004B64D3605361D3615362D3625363D36320
:1010300053640C6001F5805148608D60CB604B615A
:101040000C6001F5FE2148608D60CB604B610C6047
:1010500050609560D36053611460A2F5E222D16ABA
:1010600041F40071D162516841F00071516002F5A4
:10107000012247F6FF7150609160D36053610823ED
:10108000136003F035F81920FFF78EFF01F004FF1D
:10109000BDE8384040F21310FFF786BF00800340E0
:1010A00000900B4070B50546C1EBC1042B7853B9D5
:1010B0002B7863B1FFF75DFF06462B7853B9FFF736
:1010C00058FF801B02E0013CF0D1002070BD013CC4
:1010D000EED1FAE7013CF0D1F7E770B50546C1EB78
:1010E000C1042B7853B12B7863B9FFF742FF064652
:1010F0002B7853B1FFF73DFF801B02E0013CF0D19C
:10110000002070BD013CEED1FAE7013CF0D1F7E7D9
:101110003F280B46114609D8054A52F8300000F521
:1011200000700BB1FFF7BEBFFFF7D7BF00207047BD
:1011300078AB000070B5044608460021B4FBF2F518
:1011400002FB1546F3B2092E94BF30333733DBB2BE
:10115000A242435402D801312C46EFE74318002243
:101160005A70441E8D1AAA4200DB70BD14F8015F4C
:101170001E782670013203F80159F3E7031E10B5FB
:101180000C4603DBBDE81040FFF7D4BF2D2001F86B
:10119000010B5842FFF7CEFF204610BD2DE9F04F5E
:1011A00081EAE17885B08946A8EBE17801460546F9
:1011B00017461C4605F030F998B30021284605F083
:1011C00003F9002814BF0426032646450ADAB9F1BC
:1011D000000FA8EB060606DA20463246202105F06D
:1011E00003FA3444002628464FF07E5363F31E0072
:1011F000002105F0E9F810B12D2304F8013B41234B
:101200004E2263702270E31CA270184632462021E1
:1012100005F0EAF9034600229A55304405B0BDE8CE
:10122000F08F25F000467849304605F0F5F868BBA8
:101230003046754905F0D2F8064638BB00212846ED
:1012400005F0C2F8002840F0D880B8F1030F1BDD8C
:101250000326B9F1000FA8EB060606DA324620464F
:10126000202105F0C1F9344400260021284605F06C
:10127000ABF810B12D2304F8013B492323704E2312
:1012800063704622E31CBFE70646EEE702AB01AA05
:101290003946284605F017F9019B57EA03028046B4
:1012A0004ED10278594B5A48342A94BF984680460A
:1012B00001230193404605F07AFA019B83420646DA
:1012C000B8BF461C002B43D10136DDF808B0BBF196
:1012D000000F00D00136A9EB0605002D04EB060A2D
:1012E00060DD2A462021204605F07EF9AA446319D4
:1012F000BBF1000F02D02D2203F8012BDDF804C052
:10130000BCF1000F50D137B11A46302102F8021B50
:101310002E21597013462E219A451D465FD8B9F1EA
:10132000000F09DA4E44764226EAE676284632462F
:10133000202105F059F9354400232B7020466DE734
:101340005B429F42BEBF7B42DFF8C0800193B1E7A2
:10135000BBDA002FB9D03B44984207F10206B4D95A
:10136000DFF8B0A0B84606E02846514604F08EFEED
:1013700008F1FF380546B8F1000FF5DC002FACBFCF
:10138000F91B394602AB03AA284605F09CF8019BDD
:10139000039A791CD21A8A4208BF0133804608BFDB
:1013A000019392E72346A3E7B5DA002FB3D019469D
:1013B000302501F8025B2E225A70CCF10202134450
:1013C00000200A469A4206D1A1EB0C030028A2D0C5
:1013D000002201929FE702F8015B0120F2E718F872
:1013E000012B05F8012BAA4599D0019A013A0192E7
:1013F0000AB99D1C59702B468EE7B8F1040F7FF790
:1014000039AF042625E700BFFFFF7F7F7DAD0000D9
:101410007FAD0000000020413F4BDA6A42F010022D
:10142000F0B5DA625B6803F44033B3F5403F70D047
:101430003A493B4AB3F5803F18BF11464FEA800C4A
:10144000B1FBFCF39AB2002A62D09400B1FBF4F431
:10145000241A134609D001339B00B1FBF3F3C31ADE
:101460009C4282BF013292B21C4684440527042567
:10147000B1FBFCF39EB2D6B133467B43B1FBF3F331
:101480001B1AA3429EBF1C463D4632465BB1013645
:10149000B6B207FB06F3B1FBF3F3C31A9C4222BFBB
:1014A0001C463D4632460137212F8444E0D16B1E55
:1014B0001B0603F0F853C2F30C021A491A43072D16
:1014C00098BF42F400320A60134A536843F08063C5
:1014D0005360154A0023137053709370D3701371C7
:1014E000124A40F21350106240F2445050628B6036
:1014F0000B614B608B6843F430138B600C4B4022C4
:1015000083F856204FF0E0234FF48002C3F80821FF
:10151000F0BD084992E700BF0080044000D8B8053C
:10152000001BB70000400C40300DFF1F00C00440FE
:1015300000E400E0006CDC02194A916800F003034B
:1015400021F013010B43410748BF43F010039360A0
:1015500000F00F03042B02BF936843F080439360B5
:101560000F4B10F0080F1EBF1A6842F000521A60AD
:101570005A68C30622F08052094B48BF42F080529D
:101580005A609A68810622F0805248BF42F0805229
:101590009A60C20542BF1A6842F400521A6070474E
:1015A00000400C40104BDB6ADB0610B518D50F4C21
:1015B000227902F0FF03A2B94FF0E0224FF480013C
:1015C000C2F888110A4A9360A2F5F02240F2031192
:1015D0001162516223706370A3680BB101221A700B
:1015E00010BD03F04FFFE3E700800440300DFF1F04
:1015F00000400C4070B50A4D04462B7903F0FF06FD
:10160000002BFAD101212046FFF79CFA31462046F3
:10161000FFF75EFA034B53F83430EB6070BD00BF48
:10162000300DFF1F78AB000010B509B140F080000D
:101630000E4A1378834217D00D4CE46AE40612D5A3
:1016400003F07F03302B02BF0A4B00245C620029A9
:1016500000F07F010CBF44236023302902BF0549FD
:1016600043F4A0634B62107010BD00BFE909FF1F77
:101670000080044000C00440704738B50C4BDB6A62
:1016800013F010034FF0000410D03F28094D0AD882
:10169000094B012153F83030AB60FFF753FAAB68C8
:1016A00001201C7038BDAC602046FBE71846F9E706
:1016B00000800440300DFF1F78AB00000C4B024649
:1016C000D86A10F0100012D0382A03F5232309D16C
:1016D000084A40F2025191625A7B42F001025A7369
:1016E000012070475A7B02F0FE025A7300207047B7
:1016F0000080044000D00440F8B51B4BDB6ADA06DA
:10170000064617D5194DEB680BB101221A70AC785B
:10171000174F0134282C28BF0024EB78A3420AD0AD
:101720002B19144AF6B21E74E4B201232B71AC706B
:10173000C2F85C31F8BD02F054F940280EDC7B6839
:101740001B02EAD5EB780133282B28BF0023EA18C7
:10175000DBB2127CD2B2FA60EB70DEE7FF28DCDD90
:1017600003F090FED9E700BF00800440300DFF1F5A
:1017700000400C400000884338B504464518AC4290
:1017800000D138BD14F8010BFFF7B6FFF7E710B52D
:10179000034C237903B910BD03F074FEF9E700BFD1
:1017A000300DFF1F054B9978DA78D3B29142C8B259
:1017B0002CBF273303F1FF33181A7047300DFF1F7A
:1017C000044A11785278CBB29142D0B238BF40333C
:1017D000181A7047300DFF1F10B50F4C2078637832
:1017E0009842C1B2DAB214D0531C402B28BF002358
:1017F000E21892F83800DAB26270A268C0B23AB168
:101800008B4288BF4031CB1A1A2B01DC00231370A6
:1018100010BD4FF0FF30FBE7300DFF1F084A107876
:1018200051788842CBB208D00133402B28BF002327
:10183000134493F83800C0B270474FF0FF30704740
:10184000300DFF1F044B5A78D2B21A709B680BB14F
:1018500000221A70704700BF300DFF1F274B5A68D7
:10186000920230B51DD5264AD968137850780133D5
:10187000402BA8BF0023984205D0D018C9B280F8E9
:101880003810D9B21170916859B1D0788342C2B280
:1018900036BFC2F140029B1A9B18272BC4BF0123FD
:1018A0000B7016498C6825020DD54B6818020AD5B5
:1018B000134A9578D0788542C3B214D1114B0122D6
:1018C0000021C3E9562162020CD50C4B5B685B0218
:1018D00008D50B4A00231371D26802B11370094A6C
:1018E000C2F8583130BD0133282B28BF0023D0184F
:1018F000DBB2007CC0B2C860D370E4E700400C40AB
:10190000300DFF1F000088432A4A536B43F4806365
:101910005363294B00221A705A709A70DA701A7148
:101920005B79152B32D01B2B35D01BB9234B40F2E2
:1019300013321A64224B1B78052B31D01A2B34D06A
:10194000012B03D11D4B4FF451725A6420281D4BBB
:1019500038BF2020C0F344321A70C0F347125A70C7
:1019600000F01F000422022198729A70D9745A75EF
:1019700088221A743C22DA70134B4022DA774FF037
:10198000E0234FF00042C3F8002170470F4B40F2B4
:1019900013329A61CEE70E4B40F21332DA63C9E795
:1019A0000A4B4FF45172DA61D0E7094B4FF4517290
:1019B0009A63CBE700800440A80DFF1F00A00440FD
:1019C000EA09FF1F00A0064000E400E000C0044058
:1019D00000900440174A937800F0030103F0EC03F1
:1019E0000B43410748BF43F01003937000F00F030F
:1019F000042B02BF937943F0400393710D4A53794E
:101A0000C10603F0EF0348BF43F01003537192790E
:101A1000084B02F0EF02810648BF42F010029A71B3
:101A2000C20506D55A781978D2B241F02001197052
:101A30005A70704700A00640254B5B6B5B0510B5E4
:101A40002ED5244C237903F0FF0253BB4FF0E02343
:101A50004FF00041C3F880111F4BDA706379152BEA
:101A600022D01B2B25D01BB91C4B40F203121A6449
:101A70001B4B1B7803F07F03052B1FD01A2B22D0A2
:101A8000012B03D1154B40F203125A64124B1A7901
:101A9000DB79002323706370A3680BB101221A70F5
:101AA00010BD03F0EFFCCDE70E4B40F203129A613C
:101AB000DEE70D4B40F20312DA63D9E7094B40F23F
:101AC0000312DA61E2E7084B40F203129A63DDE7A2
:101AD00000800440A80DFF1F00A0064000A00440A5
:101AE000EA09FF1F00C004400090044070B50A4D91
:101AF00004462B7903F0FF06002BFAD10121204682
:101B0000FFF720F831462046FEF7E2FF034B53F87B
:101B10003430EB6070BD00BFA80DFF1F78AB000034
:101B200010B509B140F080001B4C237883421FD0D0
:101B30001A4A526B52051AD503F07F03052B18D0B1
:101B40001A2B1AD0012B02D1154B00225A640029FE
:101B500000F07F0214BF60234423052A11D01A2A03
:101B600014D0012A03D10E4A43F440735364207009
:101B700010BD0C4B0022DA61E9E70B4B00229A639F
:101B8000E5E7084A43F44073D361F0E7064A43F4BB
:101B900040739363EBE700BFEA09FF1F0080044036
:101BA00000A0044000C0044000900440154A53794E
:101BB000834214D01449496B49050FD5152B0FD01A
:101BC0001B2B11D00BB911490B64152810D01B2801
:101BD00013D018B90D4B40F213311964507170478E
:101BE0000B4B00219961F0E70A4B0021D963ECE728
:101BF000074B40F213319961F0E7064B40F2133185
:101C0000D963EBE7A80DFF1F0080044000A004404B
:101C100000C004400090044038B50D4B5B6B13F4DA
:101C200080634FF0000410D03F280A4D0AD80A4BB9
:101C3000012153F83030AB60FEF784FFAB68012020
:101C40001C7038BDAC602046FBE71846F9E700BFC2
:101C500000800440A80DFF1F78AB0000104B024627
:101C6000586B10F480600CD0122A03F5083309D1A8
:101C70000C4A40F20231D1605A7B42F001025A73A1
:101C800001207047142A04D1074A40F20231516101
:101C9000F2E75A7B02F0FE025A730020704700BF41
:101CA0000080044000A0044000C00440F8B51B4B75
:101CB0005B6B5A05064617D5194DEB680BB101222F
:101CC0001A70AC78174F0134402C28BF0024EB78F1
:101CD000A3420AD02B19F6B21E7401232B71114BAB
:101CE000E4B2BC22AC70DA70F8BD01F07AFE402894
:101CF0000EDC3B791B06EAD5EB780133402B28BF7D
:101D00000023EA18DBB2127CD2B2FA71EB70DEE784
:101D1000FF28DCDD03F0B6FBD9E700BF00800440FC
:101D2000A80DFF1F00A0064000F00F00092894BF77
:101D300030303730FFF7BABF2DE9F843224B5B6BE9
:101D40005A0580460ED5214DEB680BB101221A7061
:101D5000DFF87C9008EB0106BC27B04504D31C4B90
:101D6000BC22DA70BDE8F883AC78EB780134402C03
:101D700028BF0024A34218D189F8037001F031FE76
:101D800040281BDC99F804301B060BD5EB78013397
:101D9000402B28BF0023EA18DBB2127CD2B289F8AC
:101DA0000720EB70EB789C42E8D02B1918F8012B38
:101DB0001A74E4B201232B71AC70CEE7FF28F1DD79
:101DC00003F060FBEEE700BF00800440A80DFF1F9A
:101DD00000A0064010B5034C237903B910BD03F0F1
:101DE00051FBF9E7A80DFF1F054B9978DA78D3B2BC
:101DF0009142C8B22CBF3F3303F1FF33181A70472A
:101E0000A80DFF1F044A11785278CBB29142D0B28C
:101E100038BF4033181A7047A80DFF1F10B50F4C7C
:101E2000207863789842C1B2DAB214D0531C402BA8
:101E300028BF0023E21892F85000DAB26270A2685C
:101E4000C0B23AB18B4288BF4031CB1A1A2B01DCA9
:101E50000023137010BD4FF0FF30FBE7A80DFF1FEC
:101E6000084A107851788842CBB208D00133402B11
:101E700028BF0023134493F85000C0B270474FF0BE
:101E8000FF307047A80DFF1F0B4B5B6B5B0512D536
:101E90000A4BDA7802F0CB02DA7040225A74DA7810
:101EA00042F03402DA70064B5A78D2B21A709B684C
:101EB0000BB100221A7070470080044000A0064059
:101EC000A80DFF1F70B5344D2B7913F0300F09D0DA
:101ED00072B6AB7D03F0FF04002B35D1EB794023C4
:101EE0006B7462B62C4AD3781E06DDB21DD5137909
:101EF0001C061AD529498C78CB78E4B2DBB2A34210
:101F00000BD00133402B28BF00231079C818007C68
:101F1000C0B2D071107D0728F1D9DBB2CB701E4B57
:101F20001A79100644BF7C22DA7069060BD51A4B69
:101F30001A79520607D5194A00211171D26802B1E7
:101F400011703C22DA7070BD62B614480378427892
:101F5000DBB2D2B2591C402928BF00219142EE7950
:101F600018BF4318F6B21CBF83F850600B46611EC1
:101F700011F0FF04EED1D9B2017081680029B1D00F
:101F8000934236BFC2F140029B1A9B18272BC4BF55
:101F900001230B70A6E700BF00A00640A80DFF1F9D
:101FA00038B5441E14F8015F05B938BD0A2D02D1B9
:101FB0000D20FFF77BFE2846FFF778FEF2E710B50D
:101FC00004460009FFF7B0FE2046BDE81040ABE62E
:101FD00010B50446000AFFF7F2FF2046BDE81040A6
:101FE000FFF7EDBF10B50446000EFFF7E8FF200C29
:101FF000FFF7E5FF200AFFF7E2FF2046BDE81040AB
:10200000FFF7DDBF38B5104C236863B12068438803
:10201000C2180133157A02889A4212D801F01CFACC
:102020000023236004E0094B1B781BB94FF0FF35F8
:10203000284638BD032000F05DF920600028E5D176
:10204000F4E74380F4E700BF380EFF1F9C0EFF1F2C
:1020500010B50B4C236823B123686BB94FF0FF30E8
:1020600010BD084B1B78002BF8D0032000F042F97C
:1020700020600028F0D1F1E75A881344187AEFE77E
:10208000380EFF1F9C0EFF1F044B9888044B1A68E4
:102090001AB1138852889B1A18447047640EFF1FA8
:1020A000380EFF1F2DE9F047DFF87C901F4F0646E2
:1020B0000D464FF0000815B94046BDE8F08799F885
:1020C0000030002BF8D03B6853B9032000F012F920
:1020D00038600028F0D0038813B901F0BDF9F4E7A7
:1020E000D7F800A05346BAF8021033F8084B641A28
:1020F000AC4228BF2C4622461944304604F04CFA24
:10210000BAF80220BAF800302644A0442D1B14442B
:10211000A4B2A342AAF80240CDD8504601F09CF9DF
:1021200000233B60C7E700BF9C0EFF1F380EFF1F58
:1021300010B5094B1B786BB1084C206818B101F041
:102140008BF900232360032000F0D4F810B101F0D4
:1021500083F9F8E710BD00BF9C0EFF1F380EFF1F6C
:102160002DE9F0472A4CDFF8AC80012781460D4667
:1021700027710E4616B9267128460BE0A3680BBBE3
:1021800047F2095A98F8003003F0FF0223B9227190
:102190004FF0FF30BDE8F087042000F0DBF807289F
:1021A00005D8277101F03AF9A06058B92071BAF149
:1021B000010A01D0237B13B101232373E8E703F065
:1021C00061F9DFE7A168002323734B88C3F1400264
:1021D000B24228BF324698180B444880B61A0733DB
:1021E00009EB020AD1450DD14B883F2B06D940237C
:1021F0000B80042000F02AF90023A36005236373F9
:10220000D146B7E719F8012B03F8012FEAE700BF21
:10221000380EFF1F9C0EFF1F07B501218DF8070028
:102220000DF10700FFF79CFF03B05DF804FB10B54C
:102230000D4C01232371A3687BB90C4B1B7813B998
:102240000020207110BD042000F084F80728F7D882
:1022500001F0E4F8A0600028F2D0A36858880023B9
:10226000C0F140002371EDE7380EFF1F9C0EFF1FE9
:1022700070B50F4B1B787BB10E4CA56801262671FB
:102280005DB16B880026667329462B80042000F020
:10229000DDF8A6600023237170BD01F0BFF8014690
:1022A00020B10420657300F0D1F8F3E76673F1E71D
:1022B0009C0EFF1F380EFF1F38B50D4C237903F01D
:1022C000FF053BB9A16831B14B880B80042000F0B9
:1022D000BDF8A56038BD01F0A1F8014620B1BDE808
:1022E0003840042000F0B2B801236373F2E700BF66
:1022F000380EFF1F431E032B10D872B6084A52F83F
:10230000230048B102EB4301D0F804C042F823C0D7
:102310000B8A02889B1A0B8262B6704700207047B6
:10232000540EFF1F013803280DD8094B03EB800022
:10233000836972B64BB100201A885B681044002B89
:10234000FAD162B67047002070471846F9E700BF1F
:10235000540EFF1F013803280CD872B6074B03EB4D
:102360008000836943B100205B680130002BFBD102
:1023700062B67047002070471846F9E7540EFF1FF9
:1023800072B62D4A1378190705D52C4B196A002906
:102390003BD0996A41B353781B0706D5274B196C7C
:1023A000002943D0996C00293AD09378190706D5B3
:1023B000224B196E00293CD0996E002933D0D37876
:1023C0001B070AD51D4BD3F880204FF0100CF2B13B
:1023D000D3F888204FF0110C42B162B6184B00229E
:1023E00083F8282001F038B84FF0050C03EBCC023D
:1023F00013490830506091F82820124843F83C00F7
:10240000013A81F8282062B670474FF0040C03EBC4
:10241000CC020B490830506091F828200A48EDE7BB
:102420004FF0090CE2E74FF00D0CDFE74FF0080C1E
:10243000EDE74FF00C0CEAE784AD00000000FF1F51
:10244000540EFF1FC800400088004000421E032AAF
:1024500012D81F4B400140F0100010B5184472B65E
:102460001C4B03EB020C9CF82CC0BCF1030F22D8D0
:10247000DFE80CF01619031D70474FF0050CB1F89A
:1024800000E010F0080F134414BFC822882242EA6B
:102490000E420831C0E9002183F82CC062B610BD9D
:1024A0004FF0030CEBE708304FF0020CE7E7083081
:1024B0004FF0040CE3E703EB82009200846924B13F
:1024C000006B41601A441163E8E78161FAE700BFDD
:1024D0000000FF1F540EFF1F00F1FF3CBCF1030F73
:1024E0001CD80F4B400140F0100010B5184472B6D4
:1024F0000C4B03EB0C0494F82C4064B108304FF003
:10250000000E6344120442F08002C0E9002183F807
:102510002CE062B610BD4FF0010EF2E7704700BF2D
:102520000000FF1F540EFF1F00BE00BF2DE9F04F3B
:10253000DFF8E8B2BA4C85B040E0BA4E8F0806EB3F
:10254000C708551ED8F8042011F00801EDB2A2F119
:10255000080040F0F88056F837304FEA134C1B0C57
:1025600022F808CC00F0E88022F8061C42F8041C8F
:1025700054F82520002A00F0308204EB8501AA00DF
:10258000C96D486004EB45052244298AD0658C4416
:10259000A5F810C000F042FF002800F01682A24902
:1025A000A24A18F0080F00F1080008BF0A46C8F850
:1025B000040046F8372008228BF880209BF8802002
:1025C0005607D5B21CD594F84820B2B194F84910FA
:1025D00001F0FF0231B1013AD2B284F84920002A59
:1025E00000F050849248017801F0FF0229B1013ACD
:1025F000D2B20270002A00F01C8204228BF88020E4
:1026000015F0080200F0FC819BF89020D1B212096D
:1026100093D1DFF81092890809EBC10659F831000F
:102620007668C0F38300092800F0BA8010D801381A
:10263000012809D8B4F84C5042F22100854200F03C
:1026400023827A4849F8310001228BF89420B2E7BE
:102650000D28F9D1D6E90076744849F8310040F2E6
:102660008165B9B20120A942C4E913766265C9F84F
:102670001020C9F8182084F8580000F2F480B1F551
:10268000D06F80F0C782B1F5817F00F0DC8240F22C
:10269000D38040F20230814240F0B98006F07F06DC
:1026A000042E00F2ED81380C40F0EA81614B13F802
:1026B000261041F0020103F826100146B4F85250EA
:1026C00094F86C70A84228BF284647F0020C4028B6
:1026D00009EBCC06054628BF402571602E0446F064
:1026E000C80649F83C600026294484F85860451B18
:1026F00087F0010684F86C6000F0B08146F00200BB
:10270000402D84F86C7009EBC0072E4628BF402688
:1027100079603704314447F088070122AE1B49F83D
:10272000307084F8582000F095816165A4F86E60DF
:1027300001228BF8942087E73B493C4A18F0080FA8
:1027400008BF0A4635E700F087FE04EB8500816983
:10275000002900F046814A688261601901F108028F
:1027600090F82C00C8F80420032807D8DFE800F010
:10277000120F15022544042285F82C2018F0080FAA
:10278000098814BFC822882242EA014211E7254481
:102790000222F1E725440322EEE725440522EBE778
:1027A000606D38B3B4F86E7094F8586094F86C505B
:1027B000402F394628BF4021002E86F0010684F8BC
:1027C000586045F0020685F0010584F86C5009EB6D
:1027D000C605686014BFC825882545EA0145084438
:1027E000791A89B249F83650A4F86E10002900F021
:1027F00023816065B4F84C20B2F5A06F01BF94F856
:102800004E20002184F84D108BF898201CE7B1F57C
:10281000A06F40F0358100204FE700BF0020074047
:10282000540EFF1F0000FF1F88004000C80040003A
:10283000450EFF1FC0200740802900F01982822921
:1028400040F01E8106F07F06042E00F2198100215F
:10285000A64BA4F8401013F826108D0700F10C8247
:102860000220A3492AE742F22105A9423FF460AFC2
:1028700010D942F22120814240F0A380B6B2002E4E
:10288000C9D19C490D689C490D609C49C7F307401C
:102890000870C0E7B1F5086F00F0E581B1F5106F81
:1028A00040F0EE80D9F82010C7F3074084F84800C4
:1028B000080600F1E581D9F82810090600F18582A3
:1028C000D9F830100A0600F17A82D9F838100B06D0
:1028D00000F16F82D9F840100F0600F16482D9F838
:1028E00048100E0600F17D82D9F850100D0600F157
:1028F0007282D9F85810080600F14F82D9F860109A
:10290000090600F14482D9F868100A0600F1D08166
:10291000D9F870100B0600F1C581D9F878100F06B0
:1029200000F1BA81D9F880100E0600F1AF81D9F814
:1029300088100D0600F1C881D9F89010080600F142
:10294000BD81D9F89810090600F1DB816C4E06F1C3
:102950002C03019306F13003039306F15C03002579
:1029600006F1100A06F11808029356F8047B2FB1FD
:1029700038467F6800F070FD002FF9D1029BD8F82F
:10298000007043F8045B46F8045C02932FB13846AC
:102990007F6800F061FD002FF9D1039B48F8045BCC
:1029A00043F8045B0393019B2AF8025B1978023910
:1029B000032900F2E180DFE811F02A01DB002A019F
:1029C000DB0042F22130814223E794F8282046F8C8
:1029D0003700013284F82820EDE544F82500AA00EC
:1029E000D0E5254495F82C20022A00F0BE807FF621
:1029F000E2AD032A40F0B180012285F82C20DAE50F
:102A0000E80700F1838029061AD4AA0708D53D4BB0
:102A100093F888200221D2B283F8882083F88010AE
:102A2000EB0603D5374B102283F8802005B0BDE8B4
:102A3000F08FFFF741FCE0E53F2F98BF0020D8E67C
:102A4000304B80220D2183F8C01083F88020AA0724
:102A5000E6D5DCE73F2D3FF668AE69E63F284FF04C
:102A600001057FF665AE46F0020084F8585009EB88
:102A7000C00584F86C706960882149F8301057E609
:102A80000F228BF8C02053E6B4F85000A0B91E48BE
:102A90003578057075784570B5788570F578C570AE
:102AA000056837790771862D7779B6794771867110
:102AB00004BF0F2084F8490094F8585094F86C0033
:102AC000002D85F0010584F8585040F0020580F093
:102AD000010084F86C0018BFC82609EBC50008BFC8
:102AE000882649F8356000254560AAE5C0200740E2
:102AF000940EFF1F2C0DFF1F480EFF1F460EFF1FD9
:102B0000540EFF1F002007404C0EFF1FC64BC74945
:102B1000C748C84C022583F8945080F86C200C609C
:102B20008C6000F1B00470304860CC60FF200D2450
:102B300083F8C04083F888009F240A6183F88000EE
:102B40008A6183F89820012283F88C0083F88440FE
:102B500083F8942005B0BDE8F08F18F0080F14BF7B
:102B60000322022285F82C2025E585F82C1022E589
:102B7000019B4FF001021A70019B01330193AE4B90
:102B80009E427FF4F2AEAD4D002184F828102978E2
:102B90008BF8C4100A0700F1BA8069788BF8C81066
:102BA00000200B07C9F83000C9F8380000F1DB80BD
:102BB000A9788BF8CC1000200F07C9F85000C9F88D
:102BC000580000F1BB80E9788BF8D01000200E0788
:102BD000C9F87000C9F878007CD494F86C7094F847
:102BE000585047F0020009EBC0060021C9F89010C8
:102BF000C9F89810716085F00101002D40F0438103
:102C000087F0010784F8581084F86C7034E7019B52
:102C10001D70B1E78A48416800293FF431AF3F0C8D
:102C2000B6B204E001690C3000293FF429AF0588F1
:102C3000BD42F7D14588B542F4D13F0A032F0CBFFE
:102C4000087800893AE506F07F06042E3FF618AFB3
:102C50003B0C7FF415AF7B4B13F8261021F00201DB
:102C600003F82610D7E594F8481084F84010F8E5EA
:102C70000021A4F84010F3E5012184F84010EFE5AD
:102C8000D9F82400083800F0E7FB14E6D9F88400EE
:102C9000083800F0E1FB4AE6D9F87C00083800F07B
:102CA000DBFB3FE6D9F87400083800F0D5FB34E6CA
:102CB000D9F86C00083800F0CFFB29E6D9F8940069
:102CC000083800F0C9FB3CE6D9F88C00083800F061
:102CD000C3FB31E600F0A2FB002800F0BF80083003
:102CE000C9F884005348C9F8800000F097FB002819
:102CF00000F0AC805449C9F888100830C9F88C003D
:102D00006BE7D9F89C00083800F0A6FB1EE600F03F
:102D100085FB002800F0B0800830C9F82400454841
:102D2000C9F8200000F07AFB002800F09D80464999
:102D3000C9F828100830C9F82C002EE700F06EFB07
:102D400000286AD00830C9F864003A48C9F8600021
:102D500000F064FB002858D03B49C9F868100830DF
:102D6000C9F86C002FE700F059FB002847D0083065
:102D7000C9F844002F48C9F8400000F04FFBB0B339
:102D80003149C9F848100830C9F84C0010E7D9F8A3
:102D90006400083800F060FBB5E5D9F85C0008383D
:102DA00000F05AFBAAE5D9F84400083800F054FBBB
:102DB00095E5D9F83C00083800F04EFB8AE5D9F8D3
:102DC0003400083800F048FB7FE5D9F82C000838BB
:102DD00000F042FB74E5D9F85400083800F03CFBE1
:102DE00087E5D9F84C00083800F036FB7CE594F80C
:102DF0002810C9F84800013184F82810D8E694F862
:102E00002810013184F82810B5E794F82810C9F883
:102E10006800013184F82810D5E694F828100131B3
:102E200084F8281092E700BF002007400000FF1F31
:102E3000540EFF1F88004000640EFF1F84AD000089
:102E400088AD0000C0200740C800400094F828105A
:102E5000C9F88800013184F82810BEE694F82810DB
:102E6000013184F828103EE794F82810C9F82800AA
:102E7000013184F8281090E694F82810013184F884
:102E800028104DE700BE87F0010684F8581084F83A
:102E90006C60C821F1E500BF10B500F001FB1E48D1
:102EA000002200F1A0010346C3E9002208338B424F
:102EB000FAD11A491A4C4B6B43F480234B63D4F874
:102EC0000018184B41F04071C4F80018C0F3072CEB
:102ED000C0F30744000E83F89CC083F8B04083F829
:102EE000B4001148FF214FF0010C83F8801083F8E3
:102EF0008810197483F894C002700C4A83F884C057
:102F0000702182F835104FF0E0224FF400111023A9
:102F1000C2F80411037210BD0000FF1F00800440BE
:102F200000D00040002007400021074000E400E0FE
:102F3000234A536B43F400535363224B00221A700D
:102F40005A709A70DA701A711F4B1A781F2A22D0A1
:102F50003F2A25D05B78202B27D03E2B2AD0202853
:102F60001A4B38BF2020C0F344321A70C0F3471206
:102F70005A7000F01F00002298729A701A742C2266
:102F8000DA70134B402283F825204FF0E0232022F3
:102F9000C3F8042170470F4A40F213319162D9E718
:102FA0000D4A40F213315161D4E70A4B4FF451728C
:102FB000DA62D4E7084B4FF451721A61CFE700BFD1
:102FC00000800440440FFF1FEB09FF1F00D00640A4
:102FD00000E400E000A0044000D00440174A9378C9
:102FE00000F0030103F0EC030B43410748BF43F03B
:102FF0001003937000F00F03042B02BF937943F08A
:10300000400393710D4A5379C10603F0EF0348BFA3
:1030100043F0100353719279084B02F0EF028106DE
:1030200048BF42F010029A71C20506D55A78197845
:10303000D2B241F0200119705A70704700D006409A
:103040001E4B5B6B9B0410B522D51D4C237903F0FE
:10305000FF02F3B94FF0E0232021C3F88411194B8C
:10306000DA70194B19781F2916D03F2919D05B78CF
:1030700003F07F03202B17D03E2B1AD0114B1A7967
:10308000DB79002323706370A3680BB101221A70EF
:1030900010BD02F0F7F9D9E70C4A40F20311916232
:1030A000E5E70B494A61E2E7084B40F20312DA62B6
:1030B000E4E7074B00221A61E0E700BF008004400C
:1030C000440FFF1F00D00640EB09FF1F00A0044083
:1030D00000D0044070B50A4D04462B7903F0FF067A
:1030E000002BFAD101212046FDF72CFD3146204668
:1030F000FDF7EEFC034B53F83430EB6070BD00BFBE
:10310000440FFF1F78AB000010B509B140F08000FC
:10311000154A5378834214D0144C646BA4040FD521
:1031200003F07F03202B0DD03E2B0FD0002900F0A1
:103130007F0114BF6023442320290BD03E290ED0E9
:10314000507010BD0A4B0024DC62EFE7094B0024ED
:103150001C61EBE7064943F44073CB62F0E7054995
:1031600043F440730B61EBE7EB09FF1F0080044061
:1031700000A0044000D00440114A137883420CD0D0
:103180001049496B890407D51F2B07D03F2B09D065
:103190001F280BD03F280ED0107070470A4B00211B
:1031A0009962F5E7094B00215961F1E7064B40F2BE
:1031B00013319962F0E7054B40F213315961EBE7A7
:1031C000EB09FF1F0080044000A0044000D0044031
:1031D00038B50D4B5B6B13F400534FF0000410D067
:1031E0003F280A4D0AD80A4B012153F83030AB6012
:1031F000FDF7A8FCAB6801201C7038BDAC60204610
:10320000FBE71846F9E700BF00800440440FFF1FAA
:1032100078AB000000207047F8B51B4B5B6B9A043D
:10322000064617D5194DEB680BB101221A70AC7820
:10323000174F0134282C28BF0024EB78A3420AD072
:103240002B19F6B21E7401232B71114BE4B2AC2280
:10325000AC70DA70F8BD00F0C4FB40280EDC3B799E
:103260001B06EAD5EB780133282B28BF0023EA1888
:10327000DBB2127CD2B2FA71EB70DEE7FF28DCDD44
:1032800002F000F9D9E700BF00800440440FFF1F9F
:1032900000D0064038B504464518AC4200D138BDD0
:1032A00014F8010BFFF7B8FFF7E710B5034C2379CB
:1032B00003B910BD02F0E6F8F9E700BF440FFF1FA5
:1032C000054B9978DA78D3B29142C8B22CBF273334
:1032D00003F1FF33181A7047440FFF1F044A117897
:1032E0005278CBB29142D0B238BF4033181A7047EF
:1032F000440FFF1F10B50F4C207863789842C1B27D
:10330000DAB214D0531C402B28BF0023E21892F8E5
:103310003800DAB26270A268C0B23AB18B4288BF9C
:103320004031CB1A1A2B01DC0023137010BD4FF073
:10333000FF30FBE7440FFF1F084A1078517888429E
:10334000CBB208D00133402B28BF0023134493F89D
:103350003800C0B270474FF0FF307047440FFF1F76
:10336000044B5A78D2B21A709B680BB100221A70C3
:10337000704700BF440FFF1F30B5264B1A799206E5
:103380001ED5254AD979137850780133402BA8BF30
:103390000023984218BFD018C9B21EBF80F8381059
:1033A000D9B21170916859B1D0788342C2B236BF98
:1033B000C2F140029B1A9B18272BC4BF01230B703C
:1033C0001449CB781D06DCB20AD50B79180607D54F
:1033D000114A9578D0788542C3B210D16C23CB7056
:1033E00061060BD50B4B1A79520607D50A4A002104
:1033F0001171D26802B111702C22DA7030BD013324
:10340000282B28BF0023D018DBB2007CC0B2C871C3
:10341000D370E5E700D00640440FFF1F72B60C489A
:103420000268B2FA82F30B2B02DD62B6002070470D
:103430004FF00041D94022EA0102026062B605491C
:1034400048225343C8180022CA504260704700BF48
:10345000F009FF1FD003FF1F0D4BC31AB3F5587FB0
:1034600014D20C4A127822B10B4A12780AB1FEF734
:1034700087BF72B6094A48201168B3FBF0F34FF0DA
:10348000004020FA03F30B43136062B6704700BF9D
:10349000D003FF1F7C0EFF1F9C0EFF1FF009FF1FB4
:1034A0001FB572B6144B70221A70144A5A608022EB
:1034B0001A701A781206FCD5D86862B6104B98427A
:1034C00038BF0A234FF00A0201A938BF5843FDF75D
:1034D00031FE0C4801A9002211F8014B13460132BC
:1034E00024B10A2A20F81240F6D1134601335B00BA
:1034F000037004B010BD00BF00000240000007418F
:1035000080969800F409FF1F174A936A43F480637A
:103510009362164A0023137053709370D370137123
:10352000134A40F21331516620284FF4517111664D
:1035300038BF202002F51D22C0F344311170C0F3C2
:10354000471100F01F0051709072937013742C2378
:10355000D370084B402283F842204FF0E02304222E
:10356000C3F80821704700BF00800440BC0FFF1F54
:1035700000D0044000E400E0174A937800F0030113
:1035800003F0EC030B43410748BF43F01003937073
:1035900000F00F03042B02BF937943F040039371B3
:1035A0000D4A5379C10603F0EF0348BF43F01003FF
:1035B00053719279084B02F0EF02810648BF42F046
:1035C00010029A71C20506D55A781978D2B241F024
:1035D000200119705A70704700A00E40104B9B6A72
:1035E0005B0510B518D50F4C227902F0FF03A2B984
:1035F0004FF0E0220421C2F888110B4A0B49D37026
:1036000040F20310486608661179D279237063701E
:10361000A3680BB101221A7010BD01F033FFE3E77C
:1036200000800440BC0FFF1F00A00E4000D00440EB
:1036300070B50A4D04462B7903F0FF06002BFAD132
:1036400001212046FDF77EFA31462046FDF740FA7B
:10365000034B53F83430EB6070BD00BFBC0FFF1F4D
:1036600078AB000010B509B140F080000E4A137825
:10367000834217D00D4CA46A640512D503F07F0372
:10368000212B02BF0A4B00241C66002900F07F0199
:103690000CBF44236023212902BF054943F4407332
:1036A0000B66107010BD00BF910AFF1F0080044020
:1036B00000D00440704738B50C4B9B6A13F480630C
:1036C0004FF0000410D03F28094D0AD8094B0121C2
:1036D00053F83030AB60FDF735FAAB6801201C7051
:1036E00038BDAC602046FBE71846F9E7008004408F
:1036F000BC0FFF1F78AB00000C4B0246986A10F419
:10370000806012D0182A03F5222309D1084A40F21A
:10371000023191665A7B42F001025A7301207047D0
:103720005A7B02F0FE025A7300207047008004406A
:1037300000D00440F8B51B4B9B6A5A05064617D5C6
:10374000194DEB680BB101221A70AC78174F013498
:10375000282C28BF0024EB78A3420AD02B19F6B2FC
:103760001E7401232B71114BE4B2AC22AC70DA70E1
:10377000F8BD00F036F940280EDC3B791B06EAD58F
:10378000EB780133282B28BF0023EA18DBB2127C28
:10379000D2B2FA71EB70DEE7FF28DCDD01F072FED9
:1037A000D9E700BF00800440BC0FFF1F00A00E40FF
:1037B00038B504464518AC4200D138BD14F8010BA9
:1037C000FFF7B8FFF7E710B5034C237903B910BD35
:1037D00001F058FEF9E700BFBC0FFF1F054B9978B9
:1037E000DA78D3B29142C8B22CBF273303F1FF334A
:1037F000181A7047BC0FFF1F044A11785278CBB2D9
:103800009142D0B238BF4033181A7047BC0FFF1F27
:1038100010B50F4C207863789842C1B2DAB214D058
:10382000531C402B28BF0023E21892F83800DAB26C
:103830006270A268C0B23AB18B4288BF4031CB1AE5
:103840001A2B01DC0023137010BD4FF0FF30FBE793
:10385000BC0FFF1F084A107851788842CBB208D0BD
:103860000133402B28BF0023134493F83800C0B223
:1038700070474FF0FF307047BC0FFF1F044B5A7862
:10388000D2B21A709B680BB100221A70704700BF49
:10389000BC0FFF1F30B5264B1A7992061ED5254A5C
:1038A000D979137850780133402BA8BF0023984270
:1038B00018BFD018C9B21EBF80F83810D9B2117025
:1038C000916859B1D0788342C2B236BFC2F140028A
:1038D0009B1A9B18272BC4BF01230B701449CB786C
:1038E0001D06DCB20AD50B79180607D5114A957862
:1038F000D0788542C3B210D16C23CB7061060BD552
:103900000B4B1A79520607D50A4A00211171D26869
:1039100002B111702C22DA7030BD0133282B28BF80
:103920000023D018DBB2007CC0B2C871D370E5E7C9
:1039300000A00E40BC0FFF1F08B50B4C636B580373
:1039400001D5FEF7F3FD636B590501D5FEF7BAFA11
:10395000636B1A0501D500F0FFFA636BDB04EDD54C
:10396000FCF73CFFEAE700BF0080044008B5FFF722
:10397000E3FF024B10221A80704700BF0020054071
:1039800070470A4908B5034608685BB16A460344B4
:10399000A2F50052934206D302F0A2FD0C2303606D
:1039A0004FF0FF3008BD0B60FCE700BF940AFF1F1B
:1039B000002070474FF0FF3070474FF400534B60CA
:1039C00000207047012070474FF0FF307047FEE73E
:1039D000FEE70078B0FA80F04009704701230370D9
:1039E0007047EFF31380A0B9EFF310839BB9EFF3A7
:1039F00005825AB10F2A01D9074B9B5CEFF3118264
:103A000012B1934228BF1346184670474FF4807393
:103A1000F4E74FF0FF307047F0E300E0FEE7FFFF10
:103A2000244A536B43F400635363234B00221A7000
:103A30005A709A70DA701A71204B1A78092A25D0B8
:103A40003B2A28D05B780A2B2AD03A2B2DD020286D
:103A50001B4B38BF2020C0F344321A70C0F347120A
:103A60005A700421022200F01F0098729970DA74D3
:103A70005975882119743C21D970124B402183F863
:103A800021104FF0E023C3F8042170470E4A40F2A2
:103A90001331D160D6E70D4A40F213315160D1E7BE
:103AA000094B4FF451721A61D1E7084B4FF4517230
:103AB0001A60CCE7008004403410FF1F980AFF1FF3
:103AC00000B0064000E400E000B0044000D0044034
:103AD000174A937800F0030103F0EC030B4341070E
:103AE00048BF43F01003937000F00F03042B02BF94
:103AF000937943F0400393710D4A5379C10603F063
:103B0000EF0348BF43F0100353719279084B02F062
:103B1000EF02810648BF42F010029A71C20506D535
:103B20005A781978D2B241F0200119705A70704752
:103B300000B006401E4B5B6B1B0510B522D51D4C1B
:103B4000237903F0FF02F3B94FF0E0230221C3F819
:103B50008411194BDA70194B1978092916D03B29B1
:103B600019D05B7803F07F030A2B17D03A2B1AD0B9
:103B7000114B1A79DB79002323706370A3680BB1B2
:103B800001221A7010BD01F07DFCD9E70C4A40F209
:103B90000311D160E5E70B494A60E2E7084B40F2C8
:103BA00003121A61E4E7074B00221A60E0E700BF46
:103BB000008004403410FF1F00B00640980AFF1F29
:103BC00000B0044000D0044070B50A4D04462B7983
:103BD00003F0FF06002BFAD101212046FCF7B2FFCB
:103BE00031462046FCF774FF034B53F83430EB604A
:103BF00070BD00BF3410FF1F78AB000010B509B1D5
:103C000040F08000154A5378834214D0144C646B02
:103C100024050FD503F07F030A2B0DD03A2B0FD0CC
:103C2000002900F07F0114BF602344230A290BD030
:103C30003A290ED0507010BD0A4B00241C61EFE7EA
:103C4000094B00241C60EBE7064943F440730B6109
:103C5000F0E7054943F440730B60EBE7980AFF1F58
:103C60000080044000B0044000D00440114A1378A2
:103C700083420CD01049496B090507D5092B07D0A1
:103C80003B2B09D009280BD03B280ED01070704771
:103C90000A4B0021D960F5E7094B00215960F1E793
:103CA000064B40F21331D960F0E7054B40F2133177
:103CB0005960EBE7980AFF1F0080044000B0044001
:103CC00000D0044038B50D4B5B6B13F400634FF02C
:103CD000000410D03F280A4D0AD80A4B012153F89E
:103CE0003030AB60FCF72EFFAB6801201C7038BD94
:103CF000AC602046FBE71846F9E700BF00800440AF
:103D00003410FF1F78AB00000E4B0246586B10F4C6
:103D100000600CD0172A03F50C3309D10A4A40F28F
:103D2000023191605A7B42F001025A7301207047C0
:103D30003C2A01D1054AF2E75A7B02F0FE025A738F
:103D4000002070470080044000B0044000D00440D0
:103D5000F8B51B4B5B6B1A05064617D5194DEB687A
:103D60000BB101221A70AC78174F0134282C28BFF0
:103D70000024EB78A3420AD02B19F6B21E7401235B
:103D80002B71114BE4B2BC22AC70DA70F8BDFFF7B6
:103D900028FE40280EDC3B791B06EAD5EB78013380
:103DA000282B28BF0023EA18DBB2127CD2B2FA71AA
:103DB000EB70DEE7FF28DCDD01F064FBD9E700BF34
:103DC000008004403410FF1F00B006402DE9F84386
:103DD000224B5B6B1A0580460ED5214DEB680BB16B
:103DE00001221A70DFF87C9008EB0106BC27B04571
:103DF00004D31C4BBC22DA70BDE8F883AC78EB78B6
:103E00000134282C28BF0024A34218D189F803705C
:103E1000FFF7E7FD40281BDC99F804301B060BD5A3
:103E2000EB780133282B28BF0023EA18DBB2127C81
:103E3000D2B289F80720EB70EB789C42E8D02B19BE
:103E400018F8012B1A74E4B201232B71AC70CEE781
:103E5000FF28F1DD01F016FBEEE700BF0080044013
:103E60003410FF1F00B0064010B5034C237903B98E
:103E700010BD01F007FBF9E73410FF1F054B9978DF
:103E8000DA78D3B29142C8B22CBF273303F1FF33A3
:103E9000181A70473410FF1F044A11785278CBB2B9
:103EA0009142D0B238BF4033181A70473410FF1F08
:103EB00010B50F4C207863789842C1B2DAB214D0B2
:103EC000531C402B28BF0023E21892F83800DAB2C6
:103ED0006270A268C0B23AB18B4288BF4031CB1A3F
:103EE0001A2B01DC0023137010BD4FF0FF30FBE7ED
:103EF0003410FF1F084A107851788842CBB208D09E
:103F00000133402B28BF0023134493F83800C0B27C
:103F100070474FF0FF3070473410FF1F0B4B5B6B47
:103F20001B0512D50A4BDA7802F0CB02DA70402278
:103F30005A74DA7842F03402DA70064B5A78D2B208
:103F40001A709B680BB100221A7070470080044001
:103F500000B006403410FF1F70B5344D2B7913F0BC
:103F6000300F09D072B6AB7D03F0FF04002B35D1C2
:103F7000EB7940236B7462B62C4AD3781E06DDB20F
:103F80001DD513791C061AD529498C78CB78E4B253
:103F9000DBB2A3420BD00133282B28BF00231079BA
:103FA000C818007CC0B2D071107D0728F1D9DBB2EF
:103FB000CB701E4B1A79100644BF7C22DA7069065A
:103FC0000BD51A4B1A79520607D5194A00211171DF
:103FD000D26802B111703C22DA7070BD62B614482A
:103FE00003784278DBB2D2B2591C402928BF0021A5
:103FF0009142EE7918BF4318F6B21CBF83F83860BF
:104000000B46611E11F0FF04EED1D9B20170816838
:104010000029B1D0934236BFC2F140029B1A9B18CF
:10402000272BC4BF01230B70A6E700BF00B00640DA
:104030003410FF1FF0B52B4A2B4B516A0906FCD4F4
:10404000586A10F08000F8D172B6284C2178002907
:1040500046D0956BD16BD2F840E0D2F844C0976C53
:10406000D66C29447144614439443144C1F34E0152
:1040700041F40041D162956DD16DD2F860E0D2F883
:1040800064C0976ED66E294471446144394431440A
:10409000C1F34E0141F400411163996BDA6BD3F81F
:1040A00040C05F6C9E6CDD6C0A4462443A4432440A
:1040B0002A44C2F34E0242F40042DA62996DDA6D8C
:1040C000D3F860C05F6E9E6EDD6E0A4462443A446F
:1040D00032442A44C2F34E0242F400421A63207072
:1040E00062B6F0BD00B0034000B00B40AC10FF1F43
:1040F0001E4B602210B51A701D4CE1225A702178B7
:104100001C4A082903F58E2318D101209060132141
:10411000D16098601848D96043781649174A03B1AE
:1041200001230B6213626178124A144B012910D8E3
:104130008021516259620123037010BD0A2901D107
:104140003920E3E70C290CBF35203D201221906077
:10415000DEE7042901D88421EBE7082901D885216D
:10416000E7E7102994BF86218721E2E70040074056
:104170009A0AFF1F00B00340AC10FF1F00B00B40B5
:104180000D4B5A7858B1AAB9012159701B7823B147
:104190000A4B5A6203F500235A62FFF7A9BF4AB1DE
:1041A00058701B78002BF8D0044B586203F500239D
:1041B0005862F2E7704700BFAC10FF1F00B0034029
:1041C0000C2810B417D9102828BF102010230F4A2C
:1041D0000F49181A907008789842DCB214D01378FE
:1041E0000C702BB10B4A0023536202F5002253627C
:1041F00010BCFFF77DBF0A2804D808288CBF0A230B
:104200000823E4E70C23E2E710BC7047AC10FF1F63
:104210009A0AFF1F00B0034010B5144B1B780446E8
:104220000BB1FFF707FF012C114A04D8002353629A
:10423000104A537010BD042C0F4903D80423536255
:104240004B62F5E7082C04D8052353624B62082320
:10425000EEE7102C95BF062307235362536295BFE8
:104260004B624B6210232023E2E700BFAC10FF1F1C
:1042700000B003409A0AFF1F00B00B404728F8B572
:1042800043D8234B1D5CFF2D3FD0224C23780BB12C
:10429000FFF7D0FE290616D572B61F4E05F040076F
:1042A00005F03F05F36837B323F01003F3600123F3
:1042B0003560237162B672B633681B061ED50023C3
:1042C000306923710CE072B6144E01273560E77037
:1042D00062B672B633681A0606D500233069E370F9
:1042E00062B6A3781841F8BDE378002BEED062B631
:1042F00001F0C8F8EDE743F01003D7E72379002B6E
:10430000D0D062B601F0BEF8D5E70020EBE700BFE1
:10431000DCAD0000AC10FF1F00B00B4000B003404C
:10432000094AD36A43F48053D362084B5A78084B46
:104330003AB1802280F30C0000B283F8212018806B
:104340007047C022F6E700BF00800440AC10FF1F9A
:1043500000C00C40094AD36A43F40053D362084BAF
:104360005A78084B3AB1802280F30C0000B283F8EF
:10437000212018807047C022F6E700BF008004406B
:10438000AC10FF1F00D00C4010B5044600F0AAFE90
:10439000204610BD0448054A0549002303618023D7
:1043A0000375103002F06EB8B410FF1F2C08FF1F09
:1043B000894300007047FFFFB1F5607F28BF4FF4CD
:1043C0006071F8B504460E4672B6134D00273946A3
:1043D0002860702205F10800AF8002F005F9394627
:1043E00001278E420BD04A0905EB820201F01F0320
:1043F000906807FA03F3034393600131F1E7002368
:1044000002344FF48270994204D000FB03F2A352AD
:104410000133F8E762B6F8BDCC10FF1F70B572B675
:104420001D4B988803F1080202EB800503F1780622
:10443000B542294602D362B6002070BD55F8044B40
:104440000CB90130F4E7B4FA84F64FF00045F540BA
:1044500024EA05040C6004B90130B3F87840988070
:104460000134A5B2A3F8785062B60C48891A41F617
:104470007C7200FB062289104FF4025000FB0122DF
:10448000196801268E548818B3F87A20A24238BFE2
:10449000A3F87A50D1E700BFCC10FF1FFCFEFFFF4E
:1044A00010B5438872B60278012A03D9013A027026
:1044B00062B610BD0B4A580902EB8004DB434FF093
:1044C000004103F01F0321FA03F3A1680B43A3602B
:1044D00093888342B2F8783088BF9080013BA2F87D
:1044E0007830E5E7CC10FF1F30B5C3687BB1187A90
:1044F00090420AD158685C7A006950F8245025B976
:1045000040F82410087801300870DB68EEE730BD11
:10451000437A8B4288BF02694FF0000386BF52F88E
:10452000210042F821301846704738B5437A8B4253
:1045300002D80024204638BD036953F821400022E8
:1045400043F82120002CF4D02378012BF2D9FFF777
:1045500065FF054628B14FF48072211D043002F03A
:104560001BF82378013B23702C46E3E7037C30B52E
:1045700033BB4368427A5B7A9A4221D872B60368A9
:10458000DA6872B9D8600022C2609A7A01329A72EF
:1045900001221A724368997A1A721144997202744C
:1045A0000DE01146D26862B10C68A342F9D14568AA
:1045B0004C68A542F5D10C8901898C42F1D162B6D3
:1045C00030BDC860DFE7037C10B504464BB14368DB
:1045D000427A5B7A9A4204D872B60368DA680AB9FA
:1045E00062B610BD904204BFC268DA604368427A86
:1045F0001B6953F8220040B1FFF752FF72B663689F
:10460000627A1B69002143F822102268937A013BE9
:10461000DBB2937203B913726268937A013BDBB227
:10462000937203B9137200232374D9E7084B93F8EC
:104630007C205AB9074AD02182F840104FF0E0227E
:104640000120C2F8080183F87C0070470020704701
:10465000CC10FF1F00E400E04FF0E0230122C3F87C
:104660008821024B002283F87C207047CC10FF1F6A
:104670004FF0E0222DE9F041D2F8FC3D194D1A4EE1
:1046800043F08073C2F8FC3D2B68D6F8804043F0BD
:1046900001032B606F68A4B1237A83B12368D5F836
:1046A00004801B68204698476A68E388A2EB0802EA
:1046B000C2F30F11B3EB121FA18038BFE180646910
:1046C000E9E7084BB6F886105B68DB1BC3F30F12F3
:1046D000B1EB131FA6F8842038BFA6F88620BDE8EA
:1046E000F08100BF001000E0CC10FF1F10B50446A1
:1046F000006801F049FF204610BD38B504460D465C
:104700000068013102F01CF810B1C4E90005012075
:1047100038BD43688B4210B5044601D3012010BD5B
:10472000FFF7EBFF0028FAD0A368002BF6D1226830
:104730001370F3E7F8B504460F46154632B903681F
:1047400003B11A700023A3602046F8BD1146FFF79D
:10475000E0FF064638B9206810B101F015FF266069
:1047600000236360EFE72068A560394602F017F880
:10477000EAE738B50023C0E90033044683600373D9
:104780000D4639B1084602F012F829460246204685
:10479000FFF7D0FF204638BD38B5054608460C4621
:1047A00002F005F8214602462846BDE83840FFF7EA
:1047B000C1BF13B504460023C4E90033A3602373CB
:1047C0000A22084601A902F085FF204601A9FFF749
:1047D000E3FF204602B010BD10B5044686B00023AA
:1047E000C4E90033A3602373084601A901F0C2FEA7
:1047F000204601A9FFF7D0FF204606B010BD10B536
:10480000044686B00023C4E90033A360237308463E
:1048100001A902F05FFF204601A9FFF7BDFF204676
:1048200006B010BD10B504468AB00023C4E90033B9
:10483000A3602373084601A9FCF7A0FC204601A948
:10484000FFF7AAFF20460AB010BD10B504468AB093
:104850000023C4E90033A3602373084601A9FCF7D1
:1048600069FC204601A9FFF797FF20460AB010BD5A
:1048700038B50023C0E9003304468360037308465B
:104880000D4601F094FF294602462046FFF752FFED
:10489000204638BD38B5054600680C4668B16A68E0
:1048A0008B689A4207D3096801F079FFA368AB606F
:1048B0000023A36038BD01F067FE23682B606368A6
:1048C0006B60A368AB600023C4E90033F1E710B567
:1048D0000023C0E90033044683600373FFF7DAFF67
:1048E000204610BD10B50023C0E9003304468360A4
:1048F0000373FFF7CFFF204610BD814203D08A68C3
:104900000968FFF717BF704710B500230446C0E9D8
:10491000003383600373FFF7F0FF204610BD884229
:1049200010B5044601D0FFF7B5FF204610BD884200
:1049300010B5044601D0FFF7ADFF204610BD10B5FD
:10494000044619B1FFF728FF204610BD8160FBE740
:1049500010B504468AB00023C4E90033A360237372
:1049600008466B46911CFCF719FC01462046FFF7F0
:10497000E6FF20460AB010BD38B5044608460D468D
:1049800001F015FF294602462046FFF7D3FE2046D8
:1049900038BD07B500238DF80410012201A98DF858
:1049A0000530FFF7C7FE03B05DF804FB10B5002328
:1049B0000446C0E9003383600373FFF7EAFF204633
:1049C00010BD2DE9F843036885688B4204460E4606
:1049D00017461ED85A1991421BD2A1EB03094FF07A
:1049E00001089FB13D4429462046FFF792FE68B179
:1049F0002168A0680844B8F1000F0DD03A46494438
:104A000001F0CAFD236800225A55A5602046BDE882
:104A1000F8834FF00008E4E7314601F0C0FEF4E708
:104A20008A680968FFF7CDBF38B505460C4639B12D
:104A3000084601F0BCFE214602462846FFF7C1FFAA
:104A4000284638BD13B500238DF80410012201A9B2
:104A500004468DF80530FFF7B4FF204602B010BDC4
:104A60001FB504460A22084601A9FCF787FB01A8E6
:104A700001F09DFE01A902462046FFF7A2FF204655
:104A800004B010BD1FB504460A22084601A9FCF770
:104A900051FB01A801F08BFE01A902462046FFF759
:104AA00090FF204604B010BDFFF7DABFFFF7EABF62
:104AB00010B588B004466B46022208460421FCF774
:104AC0006DFB684601F073FE694602462046FFF71B
:104AD00078FF204608B010BD10B58A680968044602
:104AE000FFF76FFF204610BD38B505460C4639B1BB
:104AF000084601F05CFE214602462846FFF761FFAA
:104B0000284638BD38B5044608460D4601F04FFE2C
:104B1000294602462046FFF754FF204638BD10B50F
:104B20000446FFF78FFF204610BD10B50446FFF77F
:104B300097FF204610BD10B50446FFF791FF2046B1
:104B400010BD10B50446FFF79DFF204610BD10B5FF
:104B50000446FFF785FF204610BD10B50446FFF759
:104B600091FF204610BD10B50446FFF7A1FF204677
:104B700010BD10B519460446104601F029F901464A
:104B80002046FFF795FF204610BD024600680B4601
:104B9000096858B141B9916851B100787047986877
:104BA00038B109784842704701F0EFBD0029F6D1CD
:104BB0000846704708B582688B689A4205D1FFF7AE
:104BC000E4FFB0FA80F0400908BD0020FCE78268ED
:104BD00008B53AB921B10878B0FA80F0400900E090
:104BE000012008BD006809B90078F5E701F0CDFDA6
:104BF000F2E708B5FFF7C9FFC00F08BD08B5FFF71A
:104C0000C4FF0028D4BF0020012008BD08B5FFF76D
:104C1000BCFF0028CCBF0020012008BD08B5FFF76D
:104C2000B4FFC043C00F08BD884270B515D083687B
:104C30008A6893420FD183B104680E68013C14F86E
:104C4000010F50B102F0F0FC054616F8010B02F01E
:104C5000EBFC8542F3D0002070BD0120FCE7134639
:104C600010B58A688468A41A9C420AD3006838B1D7
:104C7000096841B1184401F0A2FDB0FA80F0400982
:104C800010BD0020FCE70846FAE782688B689A426C
:104C900002D30022FFF7E3BF0020704708B58A68FF
:104CA000836893420BD3006840B1096849B19B1AED
:104CB000184401F06AFDB0FA80F0400908BD0020F8
:104CC000FCE70846FAE783688B4284BF03685A54BE
:104CD000704783688B4201D9006818B902480023E5
:104CE00003707047084470475411FF1F83688B425C
:104CF00003D9006810B1405C704700207047FFF78F
:104D0000F5BF58B50E462AB121B184689C4202D83D
:104D100000230B7058BDE41A013A0168944228BF81
:104D2000144619442246304601F05DFD00233355F8
:104D3000F0E78368934210B506D90468A01801F023
:104D400017FD08B1001B10BD4FF0FF30FBE700223C
:104D5000FFF7EFBF8368934210B507D9046809686D
:104D6000A01801F067FD08B1001B10BD4FF0FF3027
:104D7000FBE70022FFF7EEBFF8B5836893420546D4
:104D800002D84FF0FF30F8BD0368541C00221F5DAD
:104D90001A550668304601F039FD37550028F0D025
:104DA0002B68C01AEFE78268013AFFF7E5BF2DE9EB
:104DB000F04115468A680E46CAB18368BBB19A4273
:104DC00015D80768AB4298BF03F1FF3538464FF05E
:104DD000FF3407EB050840450BD8316801F02AFD88
:104DE00038B1C31BAB4298BF1C460130F3E74FF00C
:104DF000FF342046BDE8F08182688B68D21AFFF745
:104E0000D6BF9A42F8B50E4682BF11461A460B46E7
:104E1000002181600173B5689542C0E90011044624
:104E20000BD39D4228BF1D4633685F5D59553168DD
:104E30001144FFF784FD33685F552046F8BD10B577
:104E40008B680446FFF7DDFF204610BD036810B5F0
:104E50003BB1013B13F8014F1CB18C42FAD11A70DF
:104E6000F8E710BD2DE9F74FD0F808A005460F462A
:104E70001646BAF1000F46D0D1F808B0BBF1000FCA
:104E800041D093680468A3EB0B08B8F1000F0DD173
:104E90002046396801F0CEFC0446002833D0B268C1
:104EA000316801F079FBB0680444F1E70BDB096875
:104EB000D1462046019101F0BDFC40B3019900EBC1
:104EC0000B04C144F5E7A1463968204601F0B2FC65
:104ED0008246A0B1A0EB040B21465A464846D9446D
:104EE00001F05AFB4846B268316801F055FBB368DF
:104EF000BC689944AB6843445444AB60E4E7214642
:104F0000484601F04CFC284603B0BDE8F08FCA4586
:104F1000F9D06B684B4523D3AC684FF00009621E93
:104F2000002AF0DB39462846FFF741FF041EEADB82
:104F3000BB682968AA6823441944D21A01EB080007
:104F400001F038FBAB682A684344AB6002F8039079
:104F50002868B2683168204401F01EFB621EDFE75A
:104F600049462846FFF7C9FB0028D5D1CBE783681F
:104F70008B4281BF0368816000225A54704738B564
:104F800004460846A3688B4211D982B111448B4272
:104F900038BF1A1A2568991A1318A1600A1AE91855
:104FA000284401F007FB2268A3680021D154204661
:104FB00038BD38B5046805463CB1013C14F8010F12
:104FC00018B102F031FB2070F8E7284638BD38B53B
:104FD000046805463CB1013C14F8010F18B102F019
:104FE0002DFB2070F8E7284638BD2DE9F041066812
:104FF000054606B38468F4B1B046474618F8010B7D
:1050000001F098FA0028F8D1013C3444207801F0EE
:1050100091FA18B1A74201D8013CF7E7621CD21BF4
:10502000BE42AA6003D23946304601F0B5FA2A687A
:10503000AB680021D1542846BDE8F081006808B172
:1050400001F025BA7047006810B1002102F014BACF
:10505000002070477047036830B5EBB100249C60B6
:105060000124DC600468194B226023441B110322D5
:10507000174DA260174A45F823100179995430332F
:105080005A1102F138224032920003F01F0301202E
:1050900000FA03F3136017E00F4CE36B43F40003D3
:1050A000E36300BF0D4B01241C6003F580730C4CBF
:1050B000036003689D68002DD4D01033A3420360C1
:1050C000F7D900230360184630BD00BF008FFCBF36
:1050D000A00AFF1F30E400E000800440007003409D
:1050E0003F71034030B50468B4B10C4A2244121138
:1050F00002F130014B1103F1382360339B0001F0C2
:105100001F01012505FA01F11960054B054943F816
:1051100022100023A360036030BD00BF008FFCBFDE
:10512000A00AFF1F55500000034B0122C3F80C21B9
:10513000024B1B68184700BF00700340A00AFF1F06
:10514000034B0122C3F81C21024B5B68184700BFC8
:1051500000700340A00AFF1F034B0122C3F82C215B
:10516000024B9B68184700BF00700340A00AFF1F56
:10517000034B0122C3F83C21024BDB68184700BFF8
:1051800000700340A00AFF1FF8B507460C4659B14E
:105190008D180026AC4208D03B6814F8011B1B6830
:1051A000384698470644F5E70E463046F8BDF0B558
:1051B000012A8BB008BF0A22A9B930228DF8252018
:1051C00021243BB1631E0AAADCB252FA83F32D22DA
:1051D00003F8242C036801A95B68C4F1220221446E
:1051E00098470BB0F0BD2124B1FBF2F602FB161775
:1051F000FDB2092F0AAF94BF303537352744EDB2E1
:105200008A4207F8245CDCD8013CE4B23146EBE783
:105210002DE9F04100268D688AB004460F46B0465D
:1052200095B13346212201A93846FFF76AFD23686C
:10523000202D2A465B6828BF202201A9204616445B
:10524000AD1A98478044EBE740460AB0BDE8F081CC
:105250000029BABF49422D2300230A22A7E707B538
:1052600040F60D23ADF80430036802225B6801A903
:10527000984703B05DF804FB10B5036814465B68FB
:105280009847204610BD0EB403B503AA52F8041B7C
:10529000019202F051FA02B05DF804EB03B07047DE
:1052A0000EB403B503AA52F8041B019202F044FAAB
:1052B00002B05DF804EB03B0704730B422B9036864
:1052C00030BC1B68C9B2184730BC70E72DE9F04FFD
:1052D00085B00546194610469DF8386092461C4632
:1052E00000F018FD40B14E49284600F0A9F80446E8
:1052F000204605B0BDE8F08F24F00047494B4FF041
:10530000FF325046394600F005FD48B9454B4FF095
:10531000FF325046394600F0DFFC08B94249E3E766
:10532000424B4FF060425046214600F0E9FC08B184
:105330003F49D9E73F4B4FF060425046214600F0CD
:10534000C1FC0028F4D1002200235046214600F081
:10535000B9FC074610B104F1004401270FF2B80967
:10536000D9E9008934494FF0000B00205FFA8BF334
:105370009E4206D942464B4605F0B4F90BF1010BAB
:10538000F4E702460B465046214600F085FA89466E
:10539000804600F0FDFC3B46014682460A22284634
:1053A000FFF705FF0446002EA2D0504600F0B0FBE8
:1053B0000B4602464946404600F06CFA0F2E4FF06D
:1053C0002E0328BF0F268DF800300DF1010A374655
:1053D000013FFFB2FF2F15D00022184B05F082F9D4
:1053E0008946804600F0D4FCC0B200F130030AF8D0
:1053F000013B00F09DFB02460B464046494600F04B
:1054000049FAE5E72B68721C5B68D2B26946284608
:1054100098476DE7AFF300809A9999999999B93FA8
:1054200024AE0000FFFFEF7F28AE0000FFFFEF413A
:105430002CAE0000FFFFEFC10000E03F0000244061
:1054400070B5044608460D4601F0B1F923680246DE
:10545000294620465B68BDE870401847FCF768BEE7
:10546000FCF7F6BDFCF7CEBDFCF70EBEFCF700BFA7
:10547000FCF7DDBE08461146FCF772BE0846FCF795
:10548000CBBEFFFF2DE9F8431B4C2378002B31D016
:105490001A4D2A7872BB0122D9072A700BD5FCF766
:1054A000F3FD08B1FEF786FF154B1B781BB123787F
:1054B00023F00103237023789A0714D5DFF8448082
:1054C000DFF84490002698F80020F3B29A420AD9F7
:1054D00059F823703B6838461B69984708B13B6907
:1054E00098470136EFE700232B7023785B0701D53F
:1054F00000F00CF8BDE8F883C00AFF1F5511FF1F2C
:105500009C0AFF1F5811FF1F5C11FF1F114938B57E
:105510000B684BB1EFF3058333B9EFF3108272B62A
:10552000086810B902B962B638BD0B4C2578002D59
:10553000F8D10123237043690B6043B19D6102B927
:1055400062B600258368457798472570ECE70349E4
:105550000B60F4E77411FF1F8F11FF1F7811FF1FFD
:1055600010B5EFF3108472B6427F5AB9037F012B56
:1055700010D1134B196841B9C0E905111860586082
:105580000123437704B962B610BD42615A68826153
:105590005061F4E7032BF3D1094B996851B9C0E985
:1055A00005119860D8604FF0E0234FF08052C3F8A7
:1055B000042DE5E74261DA6882615061F2E700BFDD
:1055C0007411FF1F38B50B4C0025EFF3108272B633
:1055D000A06858B14369A36033B19D6102B962B656
:1055E000836845779847F0E7E360F7E702B962B66A
:1055F00038BD00BF7411FF1FFFF7E4BF30B503468D
:10560000EFF3108472B6407F88B11A7F012A11D15E
:10561000D3E9051222B15161596921B18A6104E0CF
:105620000C4D2960F8E70B494A6000225A7704B90B
:1056300062B630BD032AF8D1D3E9051232B1516107
:1056400059690029EAD10349CA60EEE7014DA96012
:10565000F6E700BF7411FF1F037F012B11D1437FB9
:1056600063B1D0E9052323B15A61426922B1936144
:1056700004E00D490A60F8E70B4A53600023037702
:105680007047032B0FD1437F002BF7D0D0E90523C0
:1056900033B15A614269002AE9D1034AD360EDE788
:1056A00001498A60F6E770477411FF1F0023C36049
:1056B000EFF3108272B6044B1969186101238160FF
:1056C000037502B962B670477411FF1F16494B6922
:1056D00070B52BB9C0E9023348610223037570BD70
:1056E00004681A68944206D20025121B8360C560C4
:1056F000D8601A60F0E7194605680E689B68AC1B15
:10570000046063B11A68A242F5D9D968C1608360A8
:10571000D860C1683244521B88601A60DDE7C0E976
:1057200002318860D9E700BF7411FF1F10B5EFF395
:10573000108172B6037D022BDAB212D183682BB1CD
:10574000C2680468DA601A6822441A60C2682AB122
:1057500093600023037501B962B610BD0A4A536114
:10576000F7E7012AF7D1084A1369834203D1836816
:105770001361EEE71346002BEBD09A688242F9D111
:1057800082689A60E5E700BF7411FF1F037D70B562
:1057900005460C4616460BB1FFF7C8FF64B1022C54
:1057A00038BF0224023C00232E612C606B60284627
:1057B000BDE87040FFF77ABF70BD037D70B5044649
:1057C0000D4616460BB1FFF7B1FF65B1022D2B4612
:1057D00038BF0223023BC4E9003526612046BDE8FC
:1057E0007040FFF763BF70BD70B5154D6C69002642
:1057F0001CB123687BB1013B2360EFF3108372B6C9
:10580000002228692A6103B962B6B8B18468FFF73B
:105810005DFF2046F9E7A26802B1D36020696A61A2
:10582000036826751B6822460021984763681BB1F0
:1058300023602046FFF74AFF6C69D9E770BD00BFBF
:105840007411FF1F024A136801331360704700BFD1
:105850002C0DFF1F024A136801331360FFF7C4BF0A
:105860002C0DFF1F08B5054D054C11212846FCF7EE
:1058700077FC2046FFF7F3FCF7E700BF58AE0000C7
:10588000B00AFF1F004870470000C07F81F0004150
:1058900002E000BF83F0004330B54FEA41044FEA15
:1058A000430594EA050F08BF90EA020F1FBF54EAB0
:1058B000000C55EA020C7FEA645C7FEA655C00F04C
:1058C000E2804FEA5454D4EB5555B8BF6D420CDD1D
:1058D0002C4480EA020281EA030382EA000083EAA0
:1058E000010180EA020281EA0303362D88BF30BD40
:1058F00011F0004F4FEA01314FF4801C4CEA113196
:1059000002D0404261EB410113F0004F4FEA0333F4
:105910004CEA133302D0524263EB430394EA050F7F
:1059200000F0A780A4F10104D5F1200E0DDB02FAEE
:105930000EFC22FA05F2801841F1000103FA0EF282
:10594000801843FA05F359410EE0A5F120050EF148
:10595000200E012A03FA0EFC28BF4CF0020C43FA79
:1059600005F3C01851EBE37101F0004507D54FF086
:10597000000EDCF1000C7EEB00006EEB0101B1F5D6
:10598000801F1BD3B1F5001F0CD349085FEA30001C
:105990004FEA3C0C04F101044FEA445212F5800F27
:1059A00080F09A80BCF1004F08BF5FEA500C50F1C4
:1059B000000041EB045141EA050130BD5FEA4C0CA7
:1059C000404141EB0101013C28BFB1F5801FE9D204
:1059D00091F0000F04BF01460020B1FA81F308BF27
:1059E0002033A3F10B03B3F120020CDA0C3208DDF3
:1059F00002F1140CC2F10C0201FA0CF021FA02F1CE
:105A00000CE002F11402D8BFC2F1200C01FA02F13D
:105A100020FA0CFCDCBF41EA0C019040E41AA2BF62
:105A200001EB0451294330BD6FEA04041F3C1CDA2A
:105A30000C340EDC04F11404C4F1200220FA04F04A
:105A400001FA02F340EA030021FA04F345EA0301F4
:105A500030BDC4F10C04C4F1200220FA02F001FAB6
:105A600004F340EA0300294630BD21FA04F0294638
:105A700030BD94F0000F83F4801306BF81F48011D1
:105A80000134013D4EE77FEA645C18BF7FEA655C44
:105A900029D094EA050F08BF90EA020F05D054EA16
:105AA000000C04BF1946104630BD91EA030F1EBF1B
:105AB0000021002030BD5FEA545C05D1400049411F
:105AC00028BF41F0004130BD14F580043CBF01F512
:105AD000801130BD01F0004545F0FE4141F47001F8
